:020000020000FC
:0200000020C01E
:02002400BBC05F
:10004000E2C014E015BD17E01093B10008E306BD4F
:100050000FEF0093B20020E82FBF31E030936E0025
:1000600030937000239A249A259A2C982D98E0E0DA
:10007000F1E010E056E411935A95E9F7C0E0D2E0C0
:1000800010E056E419935A95E9F7A0E0B3E010E0C8
:1000900056E41D935A95E9F7E9E0F1E010E7108383
:1000A000C5E4D2E010E1188396E073E05AE00FEF68
:1000B0000AB900000BB9000000EF0AB900000FE018
:1000C0000BB90000429A439A499B05C04A9B11C054
:1000D0004B9B1FC0F7CF0FEF0AB900000BB9000010
:1000E0000FE00AB9000000EF0BB900004E9B96E04C
:1000F000DECF0FEF0AB900000BB900000FE00AB91C
:10010000000000EF0BB900004D9B92E04F9B98E080
:10011000CECF0FEF0AB900000BB900000FE00AB90B
:10012000000000EF0BB900004E9B94E0C0CF179584
:10013000B8F41083179521E4E21721F43496108364
:10014000889458C02A50C4F72CE3E21721F434965F
:10015000108388944FC02A50C4F7129388944AC0E1
:10016000108348C0111FC0F41083111F25E4E2174B
:1001700021F43497108388943DC02A50C4F720E4BA
:10018000E21721F434971083889434C02A50C4F7BE
:100190003196108388942EC010832CC06F937F9368
:1001A000CF935A9539F55AE0F1E0963009F4BFCF74
:1001B000943009F4D7CF983071F420E020833E2F9B
:1001C000EC3328F021E4E21B313408F03A973A96F8
:1001D000F1E010830FC0923069F420E020833E2FBD
:1001E000EA3028F421E4E20F353008F43A963A97E1
:1001F000F1E01083CE2F6881611B09F46883CF91F1
:100200007F916F9118950F931F932F933F93EF93C7
:10021000CF93E0E0F1E01191C0E0D2E0299162E0FB
:1002200048E000E588942B98179508F42B9A2795B9
:1002300008F42B9A2D982D9A4A9519F448E01191BB
:1002400029910A9581F708E088942B98679508F41E
:100250002B9A2D982D9A0A95C1F72C982C9A02E08A
:100260004FEF79E08FEF7A95F1F779E08A95D9F73A
:100270008FEF2C986623A1F6CF91EF913F912F91AC
:080280001F910F91889418955D
:00000001FF
