:020000020000FC
:0200000020C01E
:02002400A8C072
:10004000C4C014E015BD17E01093B10008E306BD6D
:100050000FEF0093B20020E82FBF31E030936E0025
:1000600030937000239A249A259A2C982D98E0E0DA
:10007000F1E010E050E511935A95E9F7E2E2F1E082
:1000800010E8108396E05AE00FEF0AB900000BB9B0
:10009000000000EF0AB900000FE00BB90000429A1F
:1000A000439A499B05C04A9B11C04B9B1FC0F7CF89
:1000B0000FEF0AB900000BB900000FE00AB9000009
:1000C00000EF0BB900004E9B96E0DECF0FEF0AB9B0
:1000D00000000BB900000FE00AB9000000EF0BB9F7
:1000E00000004D9B92E04F9B98E0CECF0FEF0AB9F6
:1000F00000000BB900000FE00AB9000000EF0BB9D7
:1001000000004E9B94E0C0CF1795B8F4108317956C
:100110002BE4E21721F434961083889455C02A50BA
:10012000C4F726E4E21721F43496108388944CC077
:100130002A50C4F71293889447C0108345C0111FFA
:10014000C0F41083111F2FE4E21721F434971083B9
:1001500088943AC02A50C4F72AE4E21721F434976D
:100160001083889431C02A50C4F731961083889444
:100170002BC0108329C05A9539F55AE0F1E096302A
:1001800009F4C2CF943009F4DACF983071F420E04A
:1001900020833E2FE63428F021E4E21B3B3408F0B4
:1001A0003A973A96F1E010830FC0923069F420E05C
:1001B00020833E2FE43128F421E4E20F3F3008F49D
:1001C0003A963A97F1E0108318950F931F93EF93A7
:1001D000E0E0F1E0119161E048E000E588942B98BF
:1001E000179508F42B9A2D982D9A4A9511F448E00A
:1001F00011910A95A1F708E088942B98679508F467
:100200002B9A2D982D9A0A95C1F72C982C9A02E0DA
:100210004FEF7A95F1F772E08A95D9F78FEF2C9826
:0E0220006623D1F6EF911F910F9188941895E7
:00000001FF
