:020000020000FC
:0200000020C01E
:0200340098C171
:10004000F3C1C0E0D1E000E000E1099301E10993D0
:100050000CE0099302E1099309930AE016E0099381
:100060001A95E9F702E1099303E109930BE009937B
:1000700001E1099303E1088368EC7FEF6894239A18
:100080002B98249A2C98259A2D9815C0551F08F462
:100090002B9A2D9A2D982B981A95C1F72C9A3FEFF1
:1000A00049E04A95F1F749E03A95D9F72C980A9535
:1000B000269509F00AC006E020E46A9531F41EF0A6
:1000C00068EC689402C069E1E894C0E1D1E018E00E
:1000D00030E15FEF5AB95BB950EF5AB95FE05BB9F5
:1000E00001C07FEF5FEF5AB95BB950EF5AB95FE0DB
:1000F0005BB97A957130A9F3489B01C00AC05FEFE4
:100100005AB95BB95FE05AB950EF5BB900004C9B3C
:100110001BC0ECE6F5E016F050E00AC05A91519F82
:10012000502D500FE51F10F451E0F50F549145E0AC
:10013000579508F42B9A2D9A2D982B984A95C1F72C
:100140003A9539F7522FA2CF6FE000E0802E902E23
:1001500081E004E005BD00E00093640003E000934B
:10016000810008E306BD0FEF362F30938500009322
:10017000840000E80FBF01E000936E0000936F0061
:10018000239A2B98249A2C98259A2D98A0E0B3E0D6
:1001900000E037E00D933A95E9F700E10D9300E0B8
:1001A00038E00D933A95E9F70EEF0D930FE10D93BB
:1001B00000E038E00D933A95E9F702E00D9300E195
:1001C0000D9300E034E00D933A95E9F700EF0D93BD
:1001D0000FEF33E00D933A95E9F703E00D9300EF4D
:1001E0000D930FEF32E00D933A95E9F70FEF0D9372
:1001F0000FE70D9300E10D9300E039E00D933A9580
:10020000E9F700E10D9300E039E00D933A95E9F745
:1002100000E10D9300E037E00D933A95E9F7E0E057
:10022000F1E000E036E401933A95E9F7C0E0D2E06E
:1002300036E409933A95E9F7E0E011E010837F7F17
:10024000763408F40AC0072F372F769500FB76F92D
:1002500036F9302736FB75F9F2CF20E8A0E0A70F7A
:100260009C919223903079F7C0E0C70F288396E0E5
:100270000FEF0AB90BB900EF0AB90FE00BB9489BB1
:1002800007C0499B16C04A9B1FC04B9B2AC0F7CF93
:100290000FEF0AB90BB90FE00AB900EF0BB9000074
:1002A00000E04D9B00936F0001E04E9B00936F00B8
:1002B000DFCF0FEF0AB90BB90FE00AB900EF0BB9A6
:1002C00000004D9B96E0D4CF0FEF0AB90BB90FE0B9
:1002D0000AB900EF0BB900004C9B92E04E9B98E0EE
:1002E000C7CF0FEF0AB90BB90FE00AB900EF0BB98E
:1002F00000004D9B94E0BCCF1795B8F41083179580
:1003000001E4E01721F434961083889456C00A5013
:10031000C4F70CE3E01721F43496108388944DC0A1
:100320000A50C4F71293889448C0108346C0111F26
:10033000C0F41083111F05E4E01721F434971083F3
:1003400088943BC00A50C4F700E4E01721F43497C6
:100350001083889432C00A50C4F731961083889471
:100360002CC010832AC0CF93AF930F933F93F1E03B
:10037000963009F4C1CF943009F4D9CF983071F494
:1003800000E000833E2FEC3328F001E4E01B313421
:1003900008F03A973A96F1E010830FC0923069F472
:1003A00000E000833E2FEA3028F401E4E00F35300E
:1003B00008F43A963A97F1E01083AE2F3C9131233E
:1003C000303089F5CE2F3881311B19F5388301E0A3
:1003D000800E082D093021F400E0802E01E0900EFF
:1003E0000FE030EF6313600F072F372F769500FB78
:1003F00076F936F9302736FB75F97F7F7634A0F72A
:10040000A0E0A70F0C910123003071F7C0E0C70FE7
:1004100018830FEF60938500009384003F910F9144
:10042000AF91CF9118954FC00F931F932F933F9388
:100430006F939F93EF93CF93E0E0F1E01191C0E0D1
:10044000D2E02991A0E0B3E09D9162E048E000E5B0
:1004500088942B98179508F42B9A279520F48150AF
:1004600011F42B9A83E0979508F42B9A2D982D9AE6
:100470004A9521F448E0119129919D910A9549F7F7
:1004800008E088942B98679508F42B9A2D982D9A5C
:100490000A95C1F72C982C9A09E04FEF0A95F1F7CD
:1004A00009E04A95D9F74FEF2C98662379F608E3CF
:1004B00006BDCF91EF919F916F913F912F911F9129
:1004C0000F9188941895A0E0B1E00DE00D930BE03A
:1004D0000D930EE00D930CE00D930AE00D930D9338
:1004E000092D0D93082D0D930FE00D9304E10D934D
:1004F0000CE00D9301E10D930AE00D9300E10D93E3
:1005000003E10D9302E10C9306E020E4A0E1B1E0E9
:1005100018E030E1ECE6F5E05E91519F502D500F70
:10052000E51F10F451E0F50F549145E0579508F49C
:100530002B9A2D9A2D982B984A95C1F73A9551F7F9
:10054000522F551F08F42B9A2D9A2D982B981A95F7
:10055000C1F72C9A3FEF49E04A95F1F749E03A9507
:10056000D9F72C980A95269579F2D0CF1F11111141
:1005700011111F00040C140404041F001F110102B8
:1005800004081F001F01011F01011F001111111F8D
:10059000010101001F10101F01011F001F10101F7B
:1005A00011111F001F110102040810001F11111F5B
:1005B00011111F001F11111F01011F000000000079
:1005C00000000000040A11111F1111001F10101F5C
:1005D00010101F001F10101711111F00111B1511F3
:1005E000111111001F11111111111F001F11111FE5
:1005F000101010001F11111F141211001F10101FD6
:1006000001011F001F04040404040400111111114E
:04061000110A0400C7
:00000001FF
