:020000020000FC
:0200000020C01E
:020024004BC1CE
:0200340044C1C5
:100040008FC1C0E0D1E003E0099304E0099302E02E
:10005000099305E00993099300E016E009931A95C6
:10006000E9F705E0099306E0099301E0099304E04C
:10007000099306E0088368EC7FEF6894239A2B9835
:10008000249A2C98259A2D9815C0551F08F42B9A60
:100090002D9A2D982B981A95C1F72C9A3FEF49E08D
:1000A0004A95F1F749E03A95D9F72C980A952695A3
:1000B00009F00AC006E020E46A9531F41EF068EC0D
:1000C000689402C069E1E894C0E1D1E018E030E151
:1000D0005FEF5AB95BB950EF5AB95FE05BB901C045
:1000E0007FEF5FEF5AB95BB950EF5AB95FE05BB988
:1000F0007A957130A9F3489B01C00AC05FEF5AB9E5
:100100005BB95FE05AB950EF5BB900004C9B1CC073
:10011000E8EEF3E01EF050E00BC045E05A91519F2D
:10012000502D500FE51F10F451E0F50F549145E0AC
:10013000579508F42B9A2D9A2D982B984A95C1F72C
:100140003A9531F7522FA1CF6FE050E081E004E003
:1001500005BD00E00093640003E00093810007E028
:100160000093B10008E306BD0FEF3FE03093850038
:10017000009384000FEF0093B20000E80FBF01E08E
:1001800000936E0000936F0000937000239A2B98E9
:10019000249A2C98259A2D98E0E0F1E000E036E4CE
:1001A00001933A95E9F7C0E0D2E036E409933A9535
:1001B000E9F7A0E0B3E010E056E41D935A95E9F7A3
:1001C000EFE311E010837F7F763408F40AC0072F35
:1001D000372F769500FB76F936F9302736FB75F91F
:1001E000F2CFC0E0C70F20E8288396E00FEF0AB9EE
:1001F0000BB900EF0AB90FE00BB9499B05C04A9B48
:100200000EC04B9B19C0F9CF0FEF0AB90BB90FE025
:100210000AB900EF0BB900004E9B96E0E7CF0FEF55
:100220000AB90BB90FE00AB900EF0BB900004D9BFA
:1002300092E04F9B98E0DACF0FEF0AB90BB90FE0CD
:100240000AB900EF0BB900004E9B94E0CFCF179591
:10025000B8F41083179501E4E01721F43496108365
:10026000889456C00A50C4F706E4E01721F4349687
:10027000108388944DC00A50C4F71293889448C0E4
:10028000108346C0111FC0F41083111F05E4E0174E
:1002900021F43497108388943BC00A50C4F700E4DB
:1002A000E01721F434971083889432C00A50C4F7C1
:1002B0003196108388942CC010832AC01895CF9350
:1002C0000F933F93F1E0963009F4C1CF943009F4D5
:1002D000D9CF983071F400E000833E2FEC3328F042
:1002E00001E4E01B313408F03A973A96F1E01083CC
:1002F0000FC0923069F400E000833E2FEA3028F40A
:1003000001E4E00F353008F43A963A97F1E01083B3
:10031000CE2F3881311BD9F4388301E0500F0FE024
:1003200030EF6313600F3F910F91CF91072F372F5D
:10033000769500FB76F936F9302736FB75F97F7F25
:100340007634A0F7C0E0C70F20E8188318950FEFA8
:1003500060938500009384003F910F91CF91189591
:100360000F931F932F933F936F93EF93CF93E0E0FF
:10037000F1E01191C0E0D2E0299162E048E000E5AF
:1003800088942B98179508F42B9A279520F4815080
:1003900011F42B9A83E02D982D9A4A9519F448E090
:1003A000119129910A9569F708E088942B9867952F
:1003B00008F42B9A2D982D9A0A95C1F72C982C9A0F
:1003C00009E04FEF0A95F1F709E04A95D9F74FEFA9
:1003D0002C98662399F6CF91EF916F913F912F91D1
:1003E0001F910F91889418950000000000000000F4
:1003F000040A11111F1111001F10101F10101F00EF
:100400001F11111F101010001F11111F14121100C5
:100410001F10101F01011F001F0404040404040026
:00000001FF
