:020000020000FC
:0200000020C01E
:02002400B3C067
:10004000D8C014E015BD17E01093B10008E306BD59
:100050000FEF0093B20020E82FBF31E030936E0025
:1000600030937000239A249A259A2C982D98E0E0DA
:10007000F1E010E050E511935A95E9F7C0E0D2E0C5
:1000800010E050E519935A95E9F7E2E2F1E010E447
:100090001083C4E2D2E010E1188396E05AE00FEF3B
:1000A0000AB900000BB9000000EF0AB900000FE028
:1000B0000BB90000429A439A499B05C04A9B11C064
:1000C0004B9B1FC0F7CF0FEF0AB900000BB9000020
:1000D0000FE00AB9000000EF0BB900004E9B96E05C
:1000E000DECF0FEF0AB900000BB900000FE00AB92C
:1000F000000000EF0BB900004D9B92E04F9B98E091
:10010000CECF0FEF0AB900000BB900000FE00AB91B
:10011000000000EF0BB900004E9B94E0C0CF179594
:10012000B8F4108317952BE4E21721F4349610836A
:10013000889457C02A50C4F726E4E21721F4349675
:10014000108388944EC02A50C4F71293889449C0F3
:10015000108347C0111FC0F41083111F2FE4E21752
:1001600021F43497108388943CC02A50C4F72AE4C1
:10017000E21721F434971083889433C02A50C4F7CF
:100180003196108388942DC010832BC06F93CF932A
:100190005A9539F55AE0F1E0963009F4C0CF943021
:1001A00009F4D8CF983071F420E020833E2FE63454
:1001B00028F021E4E21B3B3408F03A973A96F1E04C
:1001C00010830FC0923069F420E020833E2FE43189
:1001D00028F421E4E20F3F3008F43A963A97F1E030
:1001E0001083CE2F6881611B09F46883CF916F91D2
:1001F00018950F931F932F933F93EF93CF93E0E0C6
:10020000F1E01191C0E0D2E0299161E048E000E521
:1002100088942B98179508F42B9A279508F42B9A15
:100220002D982D9A4A9519F448E0119129910A9533
:1002300081F708E088942B98679508F42B9A2D98FD
:100240002D9A0A95C1F72C982C9A02E04FEF7A95D7
:10025000F1F772E08A95D9F78FEF2C986623B1F603
:10026000CF91EF913F912F911F910F918894189505
:00000001FF
