:020000020000FC
:0200000020C01E
:10004000C7C03A9A42983B9A439814E015BD08E31A
:1000500006BD20E82FBF31E030936E00239A249A2A
:10006000259A2C982D98E0E0F1E010E050E51193EE
:100070005A95E9F7E2E2F1E010E8108396E00FEF1D
:100080000AB900000BB9000000EF0AB900000FE048
:100090000BB90000429A439A499B6DC04A9B79C0B4
:1000A0004B9B87C07723B1F77FEFF1E03FEF5FEF26
:1000B0002AE02A95F1F72AE03A95D9F73FEF5A95C9
:1000C000C1F75FEF10819630D1F41795B8F4108323
:1000D00017952BE4E21721F4349610838894DACF35
:1000E0002A50C4F726E4E21721F43496108388944A
:1000F000D1CF2A50C4F712938894CCCF1083943078
:10010000D9F4111FC0F41083111F2FE4E21721F45A
:10011000349710838894BECF2A50C4F72AE4E2179C
:1001200021F4349710838894B5CF2A50C4F73196C0
:1001300010838894AFCF1083983069F420E0208337
:100140003E2FE63428F021E4E21B3B3408F03A97D6
:100150003A96F1E01083923069F420E020833E2F3C
:10016000E43128F421E4E20F3F3008F43A963A975C
:10017000F1E010838FCF0FEF0AB900000BB9000038
:100180000FE00AB9000000EF0BB900004E9B96E0AB
:1001900076CF0FEF0AB900000BB900000FE00AB9E3
:1001A000000000EF0BB900004D9B92E04F9B98E0E0
:1001B00066CF0FEF0AB900000BB900000FE00AB9D3
:1001C000000000EF0BB900004E9B94E058CF18954B
:1001D0000F931F93EF93E0E0F1E0119161E048E0AD
:1001E00000E588942B98179508F42B9A2D982D9A52
:1001F0004A9511F448E011910A95A1F708E0889416
:100200002B98679508F42B9A2D982D9A0A95C1F78B
:100210002C982C9A02E04FEF7A95F1F772E08A95CC
:10022000D9F78FEF2C986623D1F6EF911F910F919C
:040230008894189501
:00000001FF
