:020000020000FC
:0200000020C01E
:0200240035C1E4
:1000400070C1C0E0D1E003E0099304E0099302E04D
:10005000099305E00993099300E016E009931A95C6
:10006000E9F705E0099306E0099301E0099304E04C
:10007000099306E0088368EC7FEF6894239A2B9835
:10008000249A2C98259A2D9815C0551F08F42B9A60
:100090002D9A2D982B981A95C1F72C9A3FEF49E08D
:1000A0004A95F1F749E03A95D9F72C980A952695A3
:1000B00009F00AC006E020E46A9531F41EF068EC0D
:1000C000689402C069E1E894C0E1D1E018E030E151
:1000D0005FEF5AB95BB950EF5AB95FE05BB901C045
:1000E0007FEF5FEF5AB95BB950EF5AB95FE05BB988
:1000F0007A957130A9F3489B01C00AC05FEF5AB9E5
:100100005BB95FE05AB950EF5BB900004C9B1CC073
:10011000E0EAF3E01EF050E00BC045E05A91519F39
:10012000502D500FE51F10F451E0F50F549145E0AC
:10013000579508F42B9A2D9A2D982B984A95C1F72C
:100140003A9531F7522FA1CF04E005BD07E00093A7
:10015000B10008E306BD0FEF0093B20000E80FBF47
:1001600001E000936E0000937000239A2B98249A6C
:100170002C98259A2D98E0E0F1E000E036E4019318
:100180003A95E9F7C0E0D2E036E409933A95E9F709
:10019000EFE311E010837F7F763408F40AC0072F65
:1001A000372F769500FB76F936F9302736FB75F94F
:1001B000F2CFC0E0C70F20E8288396E061E05AE064
:1001C0000FEF0AB90BB900EF0AB90FE00BB9499B61
:1001D00005C04A9B0EC04B9B19C0F9CF0FEF0AB95F
:1001E0000BB90FE00AB900EF0BB900004E9B96E087
:1001F000E7CF0FEF0AB90BB90FE00AB900EF0BB95F
:1002000000004D9B92E04F9B98E0DACF0FEF0AB9C8
:100210000BB90FE00AB900EF0BB900004E9B94E058
:10022000CFCF1795B8F41083179501E4E01721F4A8
:1002300034961083889458C00A50C4F706E4E01737
:1002400021F43496108388944FC00A50C4F7129357
:1002500088944AC0108348C0111FC0F41083111F36
:1002600005E4E01721F43497108388943DC00A50C8
:10027000C4F700E4E01721F434971083889434C065
:100280000A50C4F73196108388942EC010832CC076
:10029000CF930F933F935A9539F55AE0F1E096309A
:1002A00009F4BFCF943009F4D7CF983071F400E04F
:1002B00000833E2FEC3328F001E4E01B313408F0DA
:1002C0003A973A96F1E010830FC0923069F400E05B
:1002D00000833E2FEA3028F401E4E00F353008F4C3
:1002E0003A963A97F1E01083CE2F3881311BA9F46A
:1002F00038833F910F91CF91072F372F769500FBD1
:1003000076F936F9302736FB75F97F7F7634A0F71A
:10031000C0E0C70F20E8188318953F910F91CF9147
:1003200018950F931F932F933F93EF93CF93E0E094
:10033000F1E01191C0E0D2E0299162E048E000E5EF
:1003400088942B98179508F42B9A279508F42B9AE4
:100350002D982D9A4A9519F448E0119129910A9502
:1003600081F708E088942B98679508F42B9A2D98CC
:100370002D9A0A95C1F72C982C9A09E04FEF0A950F
:10038000F1F709E04A95D9F74FEF2C986623B1F6BB
:10039000CF91EF913F912F911F910F9188941895D4
:1003A0000000000000000000040A11111F111100DC
:1003B0001F10101F10101F001F11111F1010100010
:1003C0001F11111F141211001F10101F01011F0017
:0803D0001F04040404040400EE
:00000001FF
