:020000020000FC
:0200000020C01E
:0200340097C172
:10004000EBC1C0E0D1E000E006E0099307E00993CE
:1000500002E0099308E00993099300E016E0099390
:100060001A95E9F708E0099309E0099301E009937B
:1000700007E0099309E0088368EC7FEF6894209813
:10008000289A219A239A2B98249A2C98259A2D986D
:1000900015C0551F08F42B9A2D9A2D982B981A9558
:1000A000C1F72C9A3FEF49E04A95F1F749E03A95BC
:1000B000D9F72C980A95269509F00AC006E020E4A5
:1000C0006A9531F41EF068EC689402C069E1E89426
:1000D000C0E1D1E018E030E15FEF5AB95BB950EF11
:1000E0005AB95FE05BB901C07FEF5FEF5AB95BB906
:1000F00050EF5AB95FE05BB97A957130A9F3489B2C
:1001000001C00AC05FEF5AB95BB95FE05AB950EF5E
:100110005BB900004C9B1CC0E6E5F5E01EF050E02A
:100120000BC045E05A91519F502D500FE51F10F420
:1001300051E0F50F549145E0579508F42B9A2D9A0C
:100140002D982B984A95C1F73A9531F7522FA1CFA8
:100150006FE010B081E004E005BD00E000936400B2
:1001600003E00093810008E306BD0FEF3FEF3093FB
:1001700085000093840000E80FBF01E000936E004B
:1001800000936F00239A2B98249A2C98259A2D98E7
:10019000A0E0B3E000E037E00D933A95E9F700E125
:1001A0000D9300E038E00D933A95E9F70EEF0D93CB
:1001B0000FE10D9300E038E00D933A95E9F702E086
:1001C0000D9300E10D9300E034E00D933A95E9F7CB
:1001D00000EF0D930FEF33E00D933A95E9F703E04D
:1001E0000D9300EF0D930FEF32E00D933A95E9F781
:1001F0000FEF0D930FE70D9300E10D9300E039E051
:100200000D933A95E9F700E10D9300E039E00D9385
:100210003A95E9F700E10D9300E037E00D933A9548
:10022000E9F7E0E0F1E000E036E401933A95E9F720
:10023000C0E0D2E036E409933A95E9F7E0E011E056
:1002400010837F7F763408F40AC0072F372F769506
:1002500000FB76F936F9302736FB75F9F2CF20E846
:10026000A0E0A70F9C919223903079F7C0E0C70FD0
:10027000288396E00FEF0AB90BB900EF0AB90FE037
:100280000BB9489B0AC0499B13C04A9B1CC04B9B9F
:1002900027C0F7CF09EA009360000FEF0AB90BB946
:1002A0000FE00AB900EF0BB900004D9BF3CFE2CF8E
:1002B0000FEF0AB90BB90FE00AB900EF0BB9000054
:1002C0004E9B96E0D7CF0FEF0AB90BB90FE00AB9F2
:1002D00000EF0BB900004D9B92E04F9B98E0CACF16
:1002E0000FEF0AB90BB90FE00AB900EF0BB9000024
:1002F0004E9B94E0BFCF1795B8F41083179501E497
:10030000E01721F434961083889456C00A50C4F73D
:1003100006E4E01721F43496108388944DC00A5007
:10032000C4F71293889448C0108346C0111FC0F4CC
:100330001083111F05E4E01721F43497108388948B
:100340003BC00A50C4F700E4E01721F4349710834F
:10035000889432C00A50C4F73196108388942CC018
:1003600010832AC0CF93AF930F933F93F1E0963061
:1003700009F4C1CF943009F4D9CF983071F400E07A
:1003800000833E2FEC3328F001E4E01B313408F009
:100390003A973A96F1E010830FC0923069F400E08A
:1003A00000833E2FEA3028F401E4E00F353008F4F2
:1003B0003A963A97F1E01083AE2F3C9131233030DA
:1003C00051F5CE2F3881311BE1F4388301E0100E56
:1003D0000FE030EF6313600F072F372F769500FB88
:1003E00076F936F9302736FB75F97F7F7634A0F73A
:1003F000A0E0A70F0C910123003071F7C0E0C70FF8
:1004000018830FEF60938500009384003F910F9154
:10041000AF91CF9118954DC00F931F932F933F939A
:100420006F939F93EF93CF93E0E0F1E01191C0E0E1
:10043000D2E02991A0E0B3E09D9162E048E000E5C0
:1004400088942B98179508F42B9A279520F48150BF
:1004500011F42B9A83E0979508F42B9A2D982D9AF6
:100460004A9521F448E0119129919D910A9549F707
:1004700008E088942B98679508F42B9A2D982D9A6C
:100480000A95C1F72C982C9A09E04FEF0A95F1F7DD
:1004900009E04A95D9F74FEF2C98662379F6CF916A
:1004A000EF919F916F913F912F911F910F918894A0
:1004B0001895A0E0B1E003E00D9301E00D9304E096
:1004C0000D9302E00D9300E014E00D931A95E9F707
:1004D00005E00D930AE00D9302E00D9307E00D9304
:1004E00000E00D9306E00D9309E00D9308E00C93F6
:1004F000189506E020E4A0E1B1E018E030E1E6E57F
:10050000F5E05E91519F502D500FE51F10F451E022
:10051000F50F549145E0579508F42B9A2D9A2D9894
:100520002B984A95C1F73A9551F7522F551F08F469
:100530002B9A2D9A2D982B981A95C1F72C9A3FEF4C
:1005400049E04A95F1F749E03A95D9F72C980A9590
:10055000269579F2D0CF0000000000000000040AC8
:1005600011111F1111001F10101F10101F001F105C
:10057000101711111F00111B1511111111001F115E
:10058000111111111F001F11111F101010001F1148
:10059000111F141211001F10101F01011F001F0452
:0E05A00004040404040011111111110A0400D6
:00000001FF
